{
  "contractName": "NFTMarketplace",
  "abi": [
    {
      "inputs": [],
      "stateMutability": "nonpayable",
      "type": "constructor"
    },
    {
      "anonymous": false,
      "inputs": [
        {
          "indexed": true,
          "internalType": "address",
          "name": "owner",
          "type": "address"
        },
        {
          "indexed": true,
          "internalType": "address",
          "name": "approved",
          "type": "address"
        },
        {
          "indexed": true,
          "internalType": "uint256",
          "name": "tokenId",
          "type": "uint256"
        }
      ],
      "name": "Approval",
      "type": "event"
    },
    {
      "anonymous": false,
      "inputs": [
        {
          "indexed": true,
          "internalType": "address",
          "name": "owner",
          "type": "address"
        },
        {
          "indexed": true,
          "internalType": "address",
          "name": "operator",
          "type": "address"
        },
        {
          "indexed": false,
          "internalType": "bool",
          "name": "approved",
          "type": "bool"
        }
      ],
      "name": "ApprovalForAll",
      "type": "event"
    },
    {
      "anonymous": false,
      "inputs": [
        {
          "indexed": true,
          "internalType": "uint256",
          "name": "tokenId",
          "type": "uint256"
        },
        {
          "indexed": false,
          "internalType": "address",
          "name": "seller",
          "type": "address"
        },
        {
          "indexed": false,
          "internalType": "address",
          "name": "owner",
          "type": "address"
        },
        {
          "indexed": false,
          "internalType": "uint256",
          "name": "price",
          "type": "uint256"
        },
        {
          "indexed": false,
          "internalType": "bool",
          "name": "sold",
          "type": "bool"
        }
      ],
      "name": "MarketItemCreated",
      "type": "event"
    },
    {
      "anonymous": false,
      "inputs": [
        {
          "indexed": true,
          "internalType": "address",
          "name": "from",
          "type": "address"
        },
        {
          "indexed": true,
          "internalType": "address",
          "name": "to",
          "type": "address"
        },
        {
          "indexed": true,
          "internalType": "uint256",
          "name": "tokenId",
          "type": "uint256"
        }
      ],
      "name": "Transfer",
      "type": "event"
    },
    {
      "inputs": [
        {
          "internalType": "address",
          "name": "to",
          "type": "address"
        },
        {
          "internalType": "uint256",
          "name": "tokenId",
          "type": "uint256"
        }
      ],
      "name": "approve",
      "outputs": [],
      "stateMutability": "nonpayable",
      "type": "function"
    },
    {
      "inputs": [
        {
          "internalType": "address",
          "name": "owner",
          "type": "address"
        }
      ],
      "name": "balanceOf",
      "outputs": [
        {
          "internalType": "uint256",
          "name": "",
          "type": "uint256"
        }
      ],
      "stateMutability": "view",
      "type": "function",
      "constant": true
    },
    {
      "inputs": [
        {
          "internalType": "uint256",
          "name": "tokenId",
          "type": "uint256"
        }
      ],
      "name": "getApproved",
      "outputs": [
        {
          "internalType": "address",
          "name": "",
          "type": "address"
        }
      ],
      "stateMutability": "view",
      "type": "function",
      "constant": true
    },
    {
      "inputs": [
        {
          "internalType": "address",
          "name": "owner",
          "type": "address"
        },
        {
          "internalType": "address",
          "name": "operator",
          "type": "address"
        }
      ],
      "name": "isApprovedForAll",
      "outputs": [
        {
          "internalType": "bool",
          "name": "",
          "type": "bool"
        }
      ],
      "stateMutability": "view",
      "type": "function",
      "constant": true
    },
    {
      "inputs": [],
      "name": "name",
      "outputs": [
        {
          "internalType": "string",
          "name": "",
          "type": "string"
        }
      ],
      "stateMutability": "view",
      "type": "function",
      "constant": true
    },
    {
      "inputs": [
        {
          "internalType": "uint256",
          "name": "tokenId",
          "type": "uint256"
        }
      ],
      "name": "ownerOf",
      "outputs": [
        {
          "internalType": "address",
          "name": "",
          "type": "address"
        }
      ],
      "stateMutability": "view",
      "type": "function",
      "constant": true
    },
    {
      "inputs": [
        {
          "internalType": "address",
          "name": "from",
          "type": "address"
        },
        {
          "internalType": "address",
          "name": "to",
          "type": "address"
        },
        {
          "internalType": "uint256",
          "name": "tokenId",
          "type": "uint256"
        }
      ],
      "name": "safeTransferFrom",
      "outputs": [],
      "stateMutability": "nonpayable",
      "type": "function"
    },
    {
      "inputs": [
        {
          "internalType": "address",
          "name": "from",
          "type": "address"
        },
        {
          "internalType": "address",
          "name": "to",
          "type": "address"
        },
        {
          "internalType": "uint256",
          "name": "tokenId",
          "type": "uint256"
        },
        {
          "internalType": "bytes",
          "name": "_data",
          "type": "bytes"
        }
      ],
      "name": "safeTransferFrom",
      "outputs": [],
      "stateMutability": "nonpayable",
      "type": "function"
    },
    {
      "inputs": [
        {
          "internalType": "address",
          "name": "operator",
          "type": "address"
        },
        {
          "internalType": "bool",
          "name": "approved",
          "type": "bool"
        }
      ],
      "name": "setApprovalForAll",
      "outputs": [],
      "stateMutability": "nonpayable",
      "type": "function"
    },
    {
      "inputs": [
        {
          "internalType": "bytes4",
          "name": "interfaceId",
          "type": "bytes4"
        }
      ],
      "name": "supportsInterface",
      "outputs": [
        {
          "internalType": "bool",
          "name": "",
          "type": "bool"
        }
      ],
      "stateMutability": "view",
      "type": "function",
      "constant": true
    },
    {
      "inputs": [],
      "name": "symbol",
      "outputs": [
        {
          "internalType": "string",
          "name": "",
          "type": "string"
        }
      ],
      "stateMutability": "view",
      "type": "function",
      "constant": true
    },
    {
      "inputs": [
        {
          "internalType": "uint256",
          "name": "tokenId",
          "type": "uint256"
        }
      ],
      "name": "tokenURI",
      "outputs": [
        {
          "internalType": "string",
          "name": "",
          "type": "string"
        }
      ],
      "stateMutability": "view",
      "type": "function",
      "constant": true
    },
    {
      "inputs": [
        {
          "internalType": "address",
          "name": "from",
          "type": "address"
        },
        {
          "internalType": "address",
          "name": "to",
          "type": "address"
        },
        {
          "internalType": "uint256",
          "name": "tokenId",
          "type": "uint256"
        }
      ],
      "name": "transferFrom",
      "outputs": [],
      "stateMutability": "nonpayable",
      "type": "function"
    },
    {
      "inputs": [
        {
          "internalType": "uint256",
          "name": "_listingPrice",
          "type": "uint256"
        }
      ],
      "name": "updateListingPrice",
      "outputs": [],
      "stateMutability": "payable",
      "type": "function",
      "payable": true
    },
    {
      "inputs": [],
      "name": "getListingPrice",
      "outputs": [
        {
          "internalType": "uint256",
          "name": "",
          "type": "uint256"
        }
      ],
      "stateMutability": "view",
      "type": "function",
      "constant": true
    },
    {
      "inputs": [
        {
          "internalType": "string",
          "name": "tokenURI",
          "type": "string"
        },
        {
          "internalType": "uint256",
          "name": "price",
          "type": "uint256"
        }
      ],
      "name": "createToken",
      "outputs": [
        {
          "internalType": "uint256",
          "name": "",
          "type": "uint256"
        }
      ],
      "stateMutability": "payable",
      "type": "function",
      "payable": true
    },
    {
      "inputs": [
        {
          "internalType": "uint256",
          "name": "tokenId",
          "type": "uint256"
        },
        {
          "internalType": "uint256",
          "name": "price",
          "type": "uint256"
        }
      ],
      "name": "reSellToken",
      "outputs": [],
      "stateMutability": "payable",
      "type": "function",
      "payable": true
    },
    {
      "inputs": [
        {
          "internalType": "uint256",
          "name": "tokenId",
          "type": "uint256"
        }
      ],
      "name": "createMarketSale",
      "outputs": [],
      "stateMutability": "payable",
      "type": "function",
      "payable": true
    },
    {
      "inputs": [],
      "name": "fetchMarketItem",
      "outputs": [
        {
          "components": [
            {
              "internalType": "uint256",
              "name": "tokenId",
              "type": "uint256"
            },
            {
              "internalType": "address payable",
              "name": "seller",
              "type": "address"
            },
            {
              "internalType": "address payable",
              "name": "owner",
              "type": "address"
            },
            {
              "internalType": "uint256",
              "name": "price",
              "type": "uint256"
            },
            {
              "internalType": "bool",
              "name": "sold",
              "type": "bool"
            }
          ],
          "internalType": "struct NFTMarketplace.MarketItem[]",
          "name": "",
          "type": "tuple[]"
        }
      ],
      "stateMutability": "view",
      "type": "function",
      "constant": true
    },
    {
      "inputs": [],
      "name": "fetchMyNFT",
      "outputs": [
        {
          "components": [
            {
              "internalType": "uint256",
              "name": "tokenId",
              "type": "uint256"
            },
            {
              "internalType": "address payable",
              "name": "seller",
              "type": "address"
            },
            {
              "internalType": "address payable",
              "name": "owner",
              "type": "address"
            },
            {
              "internalType": "uint256",
              "name": "price",
              "type": "uint256"
            },
            {
              "internalType": "bool",
              "name": "sold",
              "type": "bool"
            }
          ],
          "internalType": "struct NFTMarketplace.MarketItem[]",
          "name": "",
          "type": "tuple[]"
        }
      ],
      "stateMutability": "view",
      "type": "function",
      "constant": true
    },
    {
      "inputs": [],
      "name": "fetchItemListed",
      "outputs": [
        {
          "components": [
            {
              "internalType": "uint256",
              "name": "tokenId",
              "type": "uint256"
            },
            {
              "internalType": "address payable",
              "name": "seller",
              "type": "address"
            },
            {
              "internalType": "address payable",
              "name": "owner",
              "type": "address"
            },
            {
              "internalType": "uint256",
              "name": "price",
              "type": "uint256"
            },
            {
              "internalType": "bool",
              "name": "sold",
              "type": "bool"
            }
          ],
          "internalType": "struct NFTMarketplace.MarketItem[]",
          "name": "",
          "type": "tuple[]"
        }
      ],
      "stateMutability": "view",
      "type": "function",
      "constant": true
    }
  ],
  "bytecode": "0x60806040526658d15e17628000600a553480156200001c57600080fd5b506040518060400160405280600981526020017f4e465420546f6b656e00000000000000000000000000000000000000000000008152506040518060400160405280600281526020017f4e540000000000000000000000000000000000000000000000000000000000008152508160009080519060200190620000a192919062000104565b508060019080519060200190620000ba92919062000104565b50505033600960006101000a81548173ffffffffffffffffffffffffffffffffffffffff021916908373ffffffffffffffffffffffffffffffffffffffff16021790555062000218565b8280546200011290620001e3565b90600052602060002090601f01602090048101928262000136576000855562000182565b82601f106200015157805160ff191683800117855562000182565b8280016001018555821562000182579182015b828111156200018157825182559160200191906001019062000164565b5b50905062000191919062000195565b5090565b5b80821115620001b057600081600090555060010162000196565b5090565b7f4e487b7100000000000000000000000000000000000000000000000000000000600052602260045260246000fd5b60006002820490506001821680620001fc57607f821691505b602082108103620002125762000211620001b4565b5b50919050565b61432680620002286000396000f3fe60806040526004361061012a5760003560e01c806385535b25116100ab578063b88d4fde1161006f578063b88d4fde146103db578063be9af53614610404578063c18763f714610420578063c87b56dd1461044b578063e179144514610488578063e985e9c5146104b35761012a565b806385535b25146103245780638fafd0211461034057806395d89b411461036b578063a22cb46514610396578063ae677aa3146103bf5761012a565b806323b872dd116100f257806323b872dd1461022857806342842e0e146102515780636352211e1461027a57806370a08231146102b757806372b3b620146102f45761012a565b806301ffc9a71461012f57806306fdde031461016c578063081812fc14610197578063095ea7b3146101d457806312e85585146101fd575b600080fd5b34801561013b57600080fd5b5061015660048036038101906101519190612adb565b6104f0565b6040516101639190612b23565b60405180910390f35b34801561017857600080fd5b506101816105d2565b60405161018e9190612bd7565b60405180910390f35b3480156101a357600080fd5b506101be60048036038101906101b99190612c2f565b610664565b6040516101cb9190612c9d565b60405180910390f35b3480156101e057600080fd5b506101fb60048036038101906101f69190612ce4565b6106e9565b005b34801561020957600080fd5b50610212610800565b60405161021f9190612d33565b60405180910390f35b34801561023457600080fd5b5061024f600480360381019061024a9190612d4e565b61080a565b005b34801561025d57600080fd5b5061027860048036038101906102739190612d4e565b61086a565b005b34801561028657600080fd5b506102a1600480360381019061029c9190612c2f565b61088a565b6040516102ae9190612c9d565b60405180910390f35b3480156102c357600080fd5b506102de60048036038101906102d99190612da1565b61093b565b6040516102eb9190612d33565b60405180910390f35b61030e60048036038101906103099190612f03565b6109f2565b60405161031b9190612d33565b60405180910390f35b61033e60048036038101906103399190612f5f565b610a34565b005b34801561034c57600080fd5b50610355610c29565b60405161036291906130f5565b60405180910390f35b34801561037757600080fd5b50610380610e91565b60405161038d9190612bd7565b60405180910390f35b3480156103a257600080fd5b506103bd60048036038101906103b89190613143565b610f23565b005b6103d960048036038101906103d49190612c2f565b610f39565b005b3480156103e757600080fd5b5061040260048036038101906103fd9190613224565b610fd3565b005b61041e60048036038101906104199190612c2f565b611035565b005b34801561042c57600080fd5b5061043561126d565b60405161044291906130f5565b60405180910390f35b34801561045757600080fd5b50610472600480360381019061046d9190612c2f565b611559565b60405161047f9190612bd7565b60405180910390f35b34801561049457600080fd5b5061049d6116aa565b6040516104aa91906130f5565b60405180910390f35b3480156104bf57600080fd5b506104da60048036038101906104d591906132a7565b611996565b6040516104e79190612b23565b60405180910390f35b60007f80ac58cd000000000000000000000000000000000000000000000000000000007bffffffffffffffffffffffffffffffffffffffffffffffffffffffff1916827bffffffffffffffffffffffffffffffffffffffffffffffffffffffff191614806105bb57507f5b5e139f000000000000000000000000000000000000000000000000000000007bffffffffffffffffffffffffffffffffffffffffffffffffffffffff1916827bffffffffffffffffffffffffffffffffffffffffffffffffffffffff1916145b806105cb57506105ca82611a2a565b5b9050919050565b6060600080546105e190613316565b80601f016020809104026020016040519081016040528092919081815260200182805461060d90613316565b801561065a5780601f1061062f5761010080835404028352916020019161065a565b820191906000526020600020905b81548152906001019060200180831161063d57829003601f168201915b5050505050905090565b600061066f82611a94565b6106ae576040517f08c379a00000000000000000000000000000000000000000000000000000000081526004016106a5906133b9565b60405180910390fd5b6004600083815260200190815260200160002060009054906101000a900473ffffffffffffffffffffffffffffffffffffffff169050919050565b60006106f48261088a565b90508073ffffffffffffffffffffffffffffffffffffffff168373ffffffffffffffffffffffffffffffffffffffff1603610764576040517f08c379a000000000000000000000000000000000000000000000000000000000815260040161075b9061344b565b60405180910390fd5b8073ffffffffffffffffffffffffffffffffffffffff16610783611b00565b73ffffffffffffffffffffffffffffffffffffffff1614806107b257506107b1816107ac611b00565b611996565b5b6107f1576040517f08c379a00000000000000000000000000000000000000000000000000000000081526004016107e8906134dd565b60405180910390fd5b6107fb8383611b08565b505050565b6000600a54905090565b61081b610815611b00565b82611bc1565b61085a576040517f08c379a00000000000000000000000000000000000000000000000000000000081526004016108519061356f565b60405180910390fd5b610865838383611c9f565b505050565b61088583838360405180602001604052806000815250610fd3565b505050565b6000806002600084815260200190815260200160002060009054906101000a900473ffffffffffffffffffffffffffffffffffffffff169050600073ffffffffffffffffffffffffffffffffffffffff168173ffffffffffffffffffffffffffffffffffffffff1603610932576040517f08c379a000000000000000000000000000000000000000000000000000000000815260040161092990613601565b60405180910390fd5b80915050919050565b60008073ffffffffffffffffffffffffffffffffffffffff168273ffffffffffffffffffffffffffffffffffffffff16036109ab576040517f08c379a00000000000000000000000000000000000000000000000000000000081526004016109a290613693565b60405180910390fd5b600360008373ffffffffffffffffffffffffffffffffffffffff1673ffffffffffffffffffffffffffffffffffffffff168152602001908152602001600020549050919050565b60006109fe6007611f05565b6000610a0a6007611f1b565b9050610a163382611f29565b610a208185612102565b610a2a8184612176565b8091505092915050565b3373ffffffffffffffffffffffffffffffffffffffff16600b600084815260200190815260200160002060020160009054906101000a900473ffffffffffffffffffffffffffffffffffffffff1673ffffffffffffffffffffffffffffffffffffffff1614610ad8576040517f08c379a0000000000000000000000000000000000000000000000000000000008152600401610acf90613725565b60405180910390fd5b600a543414610b1c576040517f08c379a0000000000000000000000000000000000000000000000000000000008152600401610b13906137b7565b60405180910390fd5b6000600b600084815260200190815260200160002060040160006101000a81548160ff02191690831515021790555080600b60008481526020019081526020016000206003018190555033600b600084815260200190815260200160002060010160006101000a81548173ffffffffffffffffffffffffffffffffffffffff021916908373ffffffffffffffffffffffffffffffffffffffff16021790555030600b600084815260200190815260200160002060020160006101000a81548173ffffffffffffffffffffffffffffffffffffffff021916908373ffffffffffffffffffffffffffffffffffffffff160217905550610c1a6008612379565b610c25333084611c9f565b5050565b60606000610c376007611f1b565b90506000610c456008611f1b565b610c4f6007611f1b565b610c599190613806565b90506000808267ffffffffffffffff811115610c7857610c77612dd8565b5b604051908082528060200260200182016040528015610cb157816020015b610c9e61296f565b815260200190600190039081610c965790505b50905060005b84811015610e86573073ffffffffffffffffffffffffffffffffffffffff16600b6000600184610ce7919061383a565b815260200190815260200160002060020160009054906101000a900473ffffffffffffffffffffffffffffffffffffffff1673ffffffffffffffffffffffffffffffffffffffff1603610e73576000600182610d43919061383a565b90506000600b60008381526020019081526020016000209050806040518060a0016040529081600082015481526020016001820160009054906101000a900473ffffffffffffffffffffffffffffffffffffffff1673ffffffffffffffffffffffffffffffffffffffff1673ffffffffffffffffffffffffffffffffffffffff1681526020016002820160009054906101000a900473ffffffffffffffffffffffffffffffffffffffff1673ffffffffffffffffffffffffffffffffffffffff1673ffffffffffffffffffffffffffffffffffffffff168152602001600382015481526020016004820160009054906101000a900460ff161515151581525050848681518110610e5657610e55613890565b5b6020026020010181905250600185610e6e919061383a565b945050505b8080610e7e906138bf565b915050610cb7565b508094505050505090565b606060018054610ea090613316565b80601f0160208091040260200160405190810160405280929190818152602001828054610ecc90613316565b8015610f195780601f10610eee57610100808354040283529160200191610f19565b820191906000526020600020905b815481529060010190602001808311610efc57829003601f168201915b5050505050905090565b610f35610f2e611b00565b83836123d5565b5050565b600960009054906101000a900473ffffffffffffffffffffffffffffffffffffffff1673ffffffffffffffffffffffffffffffffffffffff163373ffffffffffffffffffffffffffffffffffffffff1614610fc9576040517f08c379a0000000000000000000000000000000000000000000000000000000008152600401610fc090613979565b60405180910390fd5b80600a8190555050565b610fe4610fde611b00565b83611bc1565b611023576040517f08c379a000000000000000000000000000000000000000000000000000000000815260040161101a9061356f565b60405180910390fd5b61102f84848484612541565b50505050565b6000600b6000838152602001908152602001600020600301549050803414611092576040517f08c379a000000000000000000000000000000000000000000000000000000000815260040161108990613a0b565b60405180910390fd5b33600b600084815260200190815260200160002060020160006101000a81548173ffffffffffffffffffffffffffffffffffffffff021916908373ffffffffffffffffffffffffffffffffffffffff1602179055506001600b600084815260200190815260200160002060040160006101000a81548160ff0219169083151502179055506000600b600084815260200190815260200160002060020160006101000a81548173ffffffffffffffffffffffffffffffffffffffff021916908373ffffffffffffffffffffffffffffffffffffffff1602179055506111766008611f05565b611181303384611c9f565b600960009054906101000a900473ffffffffffffffffffffffffffffffffffffffff1673ffffffffffffffffffffffffffffffffffffffff166108fc600a549081150290604051600060405180830381858888f193505050501580156111eb573d6000803e3d6000fd5b50600b600083815260200190815260200160002060010160009054906101000a900473ffffffffffffffffffffffffffffffffffffffff1673ffffffffffffffffffffffffffffffffffffffff166108fc349081150290604051600060405180830381858888f19350505050158015611268573d6000803e3d6000fd5b505050565b6060600061127b6007611f1b565b905060008060005b83811015611323573373ffffffffffffffffffffffffffffffffffffffff16600b60006001846112b3919061383a565b815260200190815260200160002060020160009054906101000a900473ffffffffffffffffffffffffffffffffffffffff1673ffffffffffffffffffffffffffffffffffffffff16036113105760018361130d919061383a565b92505b808061131b906138bf565b915050611283565b5060008267ffffffffffffffff8111156113405761133f612dd8565b5b60405190808252806020026020018201604052801561137957816020015b61136661296f565b81526020019060019003908161135e5790505b50905060005b8481101561154e573373ffffffffffffffffffffffffffffffffffffffff16600b60006001846113af919061383a565b815260200190815260200160002060020160009054906101000a900473ffffffffffffffffffffffffffffffffffffffff1673ffffffffffffffffffffffffffffffffffffffff160361153b57600060018261140b919061383a565b90506000600b60008381526020019081526020016000209050806040518060a0016040529081600082015481526020016001820160009054906101000a900473ffffffffffffffffffffffffffffffffffffffff1673ffffffffffffffffffffffffffffffffffffffff1673ffffffffffffffffffffffffffffffffffffffff1681526020016002820160009054906101000a900473ffffffffffffffffffffffffffffffffffffffff1673ffffffffffffffffffffffffffffffffffffffff1673ffffffffffffffffffffffffffffffffffffffff168152602001600382015481526020016004820160009054906101000a900460ff16151515158152505084868151811061151e5761151d613890565b5b6020026020010181905250600185611536919061383a565b945050505b8080611546906138bf565b91505061137f565b508094505050505090565b606061156482611a94565b6115a3576040517f08c379a000000000000000000000000000000000000000000000000000000000815260040161159a90613a9d565b60405180910390fd5b60006006600084815260200190815260200160002080546115c390613316565b80601f01602080910402602001604051908101604052809291908181526020018280546115ef90613316565b801561163c5780601f106116115761010080835404028352916020019161163c565b820191906000526020600020905b81548152906001019060200180831161161f57829003601f168201915b50505050509050600061164d61259d565b905060008151036116625781925050506116a5565b60008251111561169757808260405160200161167f929190613af9565b604051602081830303815290604052925050506116a5565b6116a0846125b4565b925050505b919050565b606060006116b86007611f1b565b905060008060005b83811015611760573373ffffffffffffffffffffffffffffffffffffffff16600b60006001846116f0919061383a565b815260200190815260200160002060010160009054906101000a900473ffffffffffffffffffffffffffffffffffffffff1673ffffffffffffffffffffffffffffffffffffffff160361174d5760018361174a919061383a565b92505b8080611758906138bf565b9150506116c0565b5060008267ffffffffffffffff81111561177d5761177c612dd8565b5b6040519080825280602002602001820160405280156117b657816020015b6117a361296f565b81526020019060019003908161179b5790505b50905060005b8481101561198b573373ffffffffffffffffffffffffffffffffffffffff16600b60006001846117ec919061383a565b815260200190815260200160002060010160009054906101000a900473ffffffffffffffffffffffffffffffffffffffff1673ffffffffffffffffffffffffffffffffffffffff1603611978576000600182611848919061383a565b90506000600b60008381526020019081526020016000209050806040518060a0016040529081600082015481526020016001820160009054906101000a900473ffffffffffffffffffffffffffffffffffffffff1673ffffffffffffffffffffffffffffffffffffffff1673ffffffffffffffffffffffffffffffffffffffff1681526020016002820160009054906101000a900473ffffffffffffffffffffffffffffffffffffffff1673ffffffffffffffffffffffffffffffffffffffff1673ffffffffffffffffffffffffffffffffffffffff168152602001600382015481526020016004820160009054906101000a900460ff16151515158152505084838151811061195b5761195a613890565b5b6020026020010181905250600185611973919061383a565b945050505b8080611983906138bf565b9150506117bc565b508094505050505090565b6000600560008473ffffffffffffffffffffffffffffffffffffffff1673ffffffffffffffffffffffffffffffffffffffff16815260200190815260200160002060008373ffffffffffffffffffffffffffffffffffffffff1673ffffffffffffffffffffffffffffffffffffffff16815260200190815260200160002060009054906101000a900460ff16905092915050565b60007f01ffc9a7000000000000000000000000000000000000000000000000000000007bffffffffffffffffffffffffffffffffffffffffffffffffffffffff1916827bffffffffffffffffffffffffffffffffffffffffffffffffffffffff1916149050919050565b60008073ffffffffffffffffffffffffffffffffffffffff166002600084815260200190815260200160002060009054906101000a900473ffffffffffffffffffffffffffffffffffffffff1673ffffffffffffffffffffffffffffffffffffffff1614159050919050565b600033905090565b816004600083815260200190815260200160002060006101000a81548173ffffffffffffffffffffffffffffffffffffffff021916908373ffffffffffffffffffffffffffffffffffffffff160217905550808273ffffffffffffffffffffffffffffffffffffffff16611b7b8361088a565b73ffffffffffffffffffffffffffffffffffffffff167f8c5be1e5ebec7d5bd14f71427d1e84f3dd0314c0f7b2291e5b200ac8c7c3b92560405160405180910390a45050565b6000611bcc82611a94565b611c0b576040517f08c379a0000000000000000000000000000000000000000000000000000000008152600401611c0290613b8f565b60405180910390fd5b6000611c168361088a565b90508073ffffffffffffffffffffffffffffffffffffffff168473ffffffffffffffffffffffffffffffffffffffff161480611c8557508373ffffffffffffffffffffffffffffffffffffffff16611c6d84610664565b73ffffffffffffffffffffffffffffffffffffffff16145b80611c965750611c958185611996565b5b91505092915050565b8273ffffffffffffffffffffffffffffffffffffffff16611cbf8261088a565b73ffffffffffffffffffffffffffffffffffffffff1614611d15576040517f08c379a0000000000000000000000000000000000000000000000000000000008152600401611d0c90613c21565b60405180910390fd5b600073ffffffffffffffffffffffffffffffffffffffff168273ffffffffffffffffffffffffffffffffffffffff1603611d84576040517f08c379a0000000000000000000000000000000000000000000000000000000008152600401611d7b90613cb3565b60405180910390fd5b611d8f83838361265b565b611d9a600082611b08565b6001600360008573ffffffffffffffffffffffffffffffffffffffff1673ffffffffffffffffffffffffffffffffffffffff1681526020019081526020016000206000828254611dea9190613806565b925050819055506001600360008473ffffffffffffffffffffffffffffffffffffffff1673ffffffffffffffffffffffffffffffffffffffff1681526020019081526020016000206000828254611e41919061383a565b92505081905550816002600083815260200190815260200160002060006101000a81548173ffffffffffffffffffffffffffffffffffffffff021916908373ffffffffffffffffffffffffffffffffffffffff160217905550808273ffffffffffffffffffffffffffffffffffffffff168473ffffffffffffffffffffffffffffffffffffffff167fddf252ad1be2c89b69c2b068fc378daa952ba7f163c4a11628f55a4df523b3ef60405160405180910390a4611f00838383612660565b505050565b6001816000016000828254019250508190555050565b600081600001549050919050565b600073ffffffffffffffffffffffffffffffffffffffff168273ffffffffffffffffffffffffffffffffffffffff1603611f98576040517f08c379a0000000000000000000000000000000000000000000000000000000008152600401611f8f90613d1f565b60405180910390fd5b611fa181611a94565b15611fe1576040517f08c379a0000000000000000000000000000000000000000000000000000000008152600401611fd890613d8b565b60405180910390fd5b611fed6000838361265b565b6001600360008473ffffffffffffffffffffffffffffffffffffffff1673ffffffffffffffffffffffffffffffffffffffff168152602001908152602001600020600082825461203d919061383a565b92505081905550816002600083815260200190815260200160002060006101000a81548173ffffffffffffffffffffffffffffffffffffffff021916908373ffffffffffffffffffffffffffffffffffffffff160217905550808273ffffffffffffffffffffffffffffffffffffffff16600073ffffffffffffffffffffffffffffffffffffffff167fddf252ad1be2c89b69c2b068fc378daa952ba7f163c4a11628f55a4df523b3ef60405160405180910390a46120fe60008383612660565b5050565b61210b82611a94565b61214a576040517f08c379a000000000000000000000000000000000000000000000000000000000815260040161214190613e1d565b60405180910390fd5b806006600084815260200190815260200160002090805190602001906121719291906129cc565b505050565b600081116121b9576040517f08c379a00000000000000000000000000000000000000000000000000000000081526004016121b090613e89565b60405180910390fd5b600a5434146121fd576040517f08c379a00000000000000000000000000000000000000000000000000000000081526004016121f490613f1b565b60405180910390fd5b6040518060a001604052808381526020013373ffffffffffffffffffffffffffffffffffffffff1681526020013073ffffffffffffffffffffffffffffffffffffffff16815260200182815260200160001515815250600b60008481526020019081526020016000206000820151816000015560208201518160010160006101000a81548173ffffffffffffffffffffffffffffffffffffffff021916908373ffffffffffffffffffffffffffffffffffffffff16021790555060408201518160020160006101000a81548173ffffffffffffffffffffffffffffffffffffffff021916908373ffffffffffffffffffffffffffffffffffffffff1602179055506060820151816003015560808201518160040160006101000a81548160ff021916908315150217905550905050612336333084611c9f565b817fb640004f1d14576d0c209e240cad0410e0d8c0c33a09375861fbadae2588a98d333084600060405161236d9493929190613f3b565b60405180910390a25050565b600081600001549050600081116123c5576040517f08c379a00000000000000000000000000000000000000000000000000000000081526004016123bc90613fcc565b60405180910390fd5b6001810382600001819055505050565b8173ffffffffffffffffffffffffffffffffffffffff168373ffffffffffffffffffffffffffffffffffffffff1603612443576040517f08c379a000000000000000000000000000000000000000000000000000000000815260040161243a90614038565b60405180910390fd5b80600560008573ffffffffffffffffffffffffffffffffffffffff1673ffffffffffffffffffffffffffffffffffffffff16815260200190815260200160002060008473ffffffffffffffffffffffffffffffffffffffff1673ffffffffffffffffffffffffffffffffffffffff16815260200190815260200160002060006101000a81548160ff0219169083151502179055508173ffffffffffffffffffffffffffffffffffffffff168373ffffffffffffffffffffffffffffffffffffffff167f17307eab39ab6107e8899845ad3d59bd9653f200f220920489ca2b5937696c31836040516125349190612b23565b60405180910390a3505050565b61254c848484611c9f565b61255884848484612665565b612597576040517f08c379a000000000000000000000000000000000000000000000000000000000815260040161258e906140ca565b60405180910390fd5b50505050565b606060405180602001604052806000815250905090565b60606125bf82611a94565b6125fe576040517f08c379a00000000000000000000000000000000000000000000000000000000081526004016125f59061415c565b60405180910390fd5b600061260861259d565b905060008151116126285760405180602001604052806000815250612653565b80612632846127ec565b604051602001612643929190613af9565b6040516020818303038152906040525b915050919050565b505050565b505050565b60006126868473ffffffffffffffffffffffffffffffffffffffff1661294c565b156127df578373ffffffffffffffffffffffffffffffffffffffff1663150b7a026126af611b00565b8786866040518563ffffffff1660e01b81526004016126d194939291906141d1565b6020604051808303816000875af192505050801561270d57506040513d601f19601f8201168201806040525081019061270a9190614232565b60015b61278f573d806000811461273d576040519150601f19603f3d011682016040523d82523d6000602084013e612742565b606091505b506000815103612787576040517f08c379a000000000000000000000000000000000000000000000000000000000815260040161277e906140ca565b60405180910390fd5b805181602001fd5b63150b7a0260e01b7bffffffffffffffffffffffffffffffffffffffffffffffffffffffff1916817bffffffffffffffffffffffffffffffffffffffffffffffffffffffff1916149150506127e4565b600190505b949350505050565b606060008203612833576040518060400160405280600181526020017f30000000000000000000000000000000000000000000000000000000000000008152509050612947565b600082905060005b6000821461286557808061284e906138bf565b915050600a8261285e919061428e565b915061283b565b60008167ffffffffffffffff81111561288157612880612dd8565b5b6040519080825280601f01601f1916602001820160405280156128b35781602001600182028036833780820191505090505b5090505b60008514612940576001826128cc9190613806565b9150600a856128db91906142bf565b60306128e7919061383a565b60f81b8183815181106128fd576128fc613890565b5b60200101907effffffffffffffffffffffffffffffffffffffffffffffffffffffffffffff1916908160001a905350600a85612939919061428e565b94506128b7565b8093505050505b919050565b6000808273ffffffffffffffffffffffffffffffffffffffff163b119050919050565b6040518060a0016040528060008152602001600073ffffffffffffffffffffffffffffffffffffffff168152602001600073ffffffffffffffffffffffffffffffffffffffff168152602001600081526020016000151581525090565b8280546129d890613316565b90600052602060002090601f0160209004810192826129fa5760008555612a41565b82601f10612a1357805160ff1916838001178555612a41565b82800160010185558215612a41579182015b82811115612a40578251825591602001919060010190612a25565b5b509050612a4e9190612a52565b5090565b5b80821115612a6b576000816000905550600101612a53565b5090565b6000604051905090565b600080fd5b600080fd5b60007fffffffff0000000000000000000000000000000000000000000000000000000082169050919050565b612ab881612a83565b8114612ac357600080fd5b50565b600081359050612ad581612aaf565b92915050565b600060208284031215612af157612af0612a79565b5b6000612aff84828501612ac6565b91505092915050565b60008115159050919050565b612b1d81612b08565b82525050565b6000602082019050612b386000830184612b14565b92915050565b600081519050919050565b600082825260208201905092915050565b60005b83811015612b78578082015181840152602081019050612b5d565b83811115612b87576000848401525b50505050565b6000601f19601f8301169050919050565b6000612ba982612b3e565b612bb38185612b49565b9350612bc3818560208601612b5a565b612bcc81612b8d565b840191505092915050565b60006020820190508181036000830152612bf18184612b9e565b905092915050565b6000819050919050565b612c0c81612bf9565b8114612c1757600080fd5b50565b600081359050612c2981612c03565b92915050565b600060208284031215612c4557612c44612a79565b5b6000612c5384828501612c1a565b91505092915050565b600073ffffffffffffffffffffffffffffffffffffffff82169050919050565b6000612c8782612c5c565b9050919050565b612c9781612c7c565b82525050565b6000602082019050612cb26000830184612c8e565b92915050565b612cc181612c7c565b8114612ccc57600080fd5b50565b600081359050612cde81612cb8565b92915050565b60008060408385031215612cfb57612cfa612a79565b5b6000612d0985828601612ccf565b9250506020612d1a85828601612c1a565b9150509250929050565b612d2d81612bf9565b82525050565b6000602082019050612d486000830184612d24565b92915050565b600080600060608486031215612d6757612d66612a79565b5b6000612d7586828701612ccf565b9350506020612d8686828701612ccf565b9250506040612d9786828701612c1a565b9150509250925092565b600060208284031215612db757612db6612a79565b5b6000612dc584828501612ccf565b91505092915050565b600080fd5b600080fd5b7f4e487b7100000000000000000000000000000000000000000000000000000000600052604160045260246000fd5b612e1082612b8d565b810181811067ffffffffffffffff82111715612e2f57612e2e612dd8565b5b80604052505050565b6000612e42612a6f565b9050612e4e8282612e07565b919050565b600067ffffffffffffffff821115612e6e57612e6d612dd8565b5b612e7782612b8d565b9050602081019050919050565b82818337600083830152505050565b6000612ea6612ea184612e53565b612e38565b905082815260208101848484011115612ec257612ec1612dd3565b5b612ecd848285612e84565b509392505050565b600082601f830112612eea57612ee9612dce565b5b8135612efa848260208601612e93565b91505092915050565b60008060408385031215612f1a57612f19612a79565b5b600083013567ffffffffffffffff811115612f3857612f37612a7e565b5b612f4485828601612ed5565b9250506020612f5585828601612c1a565b9150509250929050565b60008060408385031215612f7657612f75612a79565b5b6000612f8485828601612c1a565b9250506020612f9585828601612c1a565b9150509250929050565b600081519050919050565b600082825260208201905092915050565b6000819050602082019050919050565b612fd481612bf9565b82525050565b6000612fe582612c5c565b9050919050565b612ff581612fda565b82525050565b61300481612b08565b82525050565b60a0820160008201516130206000850182612fcb565b5060208201516130336020850182612fec565b5060408201516130466040850182612fec565b5060608201516130596060850182612fcb565b50608082015161306c6080850182612ffb565b50505050565b600061307e838361300a565b60a08301905092915050565b6000602082019050919050565b60006130a282612f9f565b6130ac8185612faa565b93506130b783612fbb565b8060005b838110156130e85781516130cf8882613072565b97506130da8361308a565b9250506001810190506130bb565b5085935050505092915050565b6000602082019050818103600083015261310f8184613097565b905092915050565b61312081612b08565b811461312b57600080fd5b50565b60008135905061313d81613117565b92915050565b6000806040838503121561315a57613159612a79565b5b600061316885828601612ccf565b92505060206131798582860161312e565b9150509250929050565b600067ffffffffffffffff82111561319e5761319d612dd8565b5b6131a782612b8d565b9050602081019050919050565b60006131c76131c284613183565b612e38565b9050828152602081018484840111156131e3576131e2612dd3565b5b6131ee848285612e84565b509392505050565b600082601f83011261320b5761320a612dce565b5b813561321b8482602086016131b4565b91505092915050565b6000806000806080858703121561323e5761323d612a79565b5b600061324c87828801612ccf565b945050602061325d87828801612ccf565b935050604061326e87828801612c1a565b925050606085013567ffffffffffffffff81111561328f5761328e612a7e565b5b61329b878288016131f6565b91505092959194509250565b600080604083850312156132be576132bd612a79565b5b60006132cc85828601612ccf565b92505060206132dd85828601612ccf565b9150509250929050565b7f4e487b7100000000000000000000000000000000000000000000000000000000600052602260045260246000fd5b6000600282049050600182168061332e57607f821691505b602082108103613341576133406132e7565b5b50919050565b7f4552433732313a20617070726f76656420717565727920666f72206e6f6e657860008201527f697374656e7420746f6b656e0000000000000000000000000000000000000000602082015250565b60006133a3602c83612b49565b91506133ae82613347565b604082019050919050565b600060208201905081810360008301526133d281613396565b9050919050565b7f4552433732313a20617070726f76616c20746f2063757272656e74206f776e6560008201527f7200000000000000000000000000000000000000000000000000000000000000602082015250565b6000613435602183612b49565b9150613440826133d9565b604082019050919050565b6000602082019050818103600083015261346481613428565b9050919050565b7f4552433732313a20617070726f76652063616c6c6572206973206e6f74206f7760008201527f6e6572206e6f7220617070726f76656420666f7220616c6c0000000000000000602082015250565b60006134c7603883612b49565b91506134d28261346b565b604082019050919050565b600060208201905081810360008301526134f6816134ba565b9050919050565b7f4552433732313a207472616e736665722063616c6c6572206973206e6f74206f60008201527f776e6572206e6f7220617070726f766564000000000000000000000000000000602082015250565b6000613559603183612b49565b9150613564826134fd565b604082019050919050565b600060208201905081810360008301526135888161354c565b9050919050565b7f4552433732313a206f776e657220717565727920666f72206e6f6e657869737460008201527f656e7420746f6b656e0000000000000000000000000000000000000000000000602082015250565b60006135eb602983612b49565b91506135f68261358f565b604082019050919050565b6000602082019050818103600083015261361a816135de565b9050919050565b7f4552433732313a2062616c616e636520717565727920666f7220746865207a6560008201527f726f206164647265737300000000000000000000000000000000000000000000602082015250565b600061367d602a83612b49565b915061368882613621565b604082019050919050565b600060208201905081810360008301526136ac81613670565b9050919050565b7f4f6e6c79206f776e65722063616e20706572666f726d2074686973206f70657260008201527f6174696f6e000000000000000000000000000000000000000000000000000000602082015250565b600061370f602583612b49565b915061371a826136b3565b604082019050919050565b6000602082019050818103600083015261373e81613702565b9050919050565b7f5072696365206d75737420626520657175616c20746f206c697374696e67207060008201527f7269636500000000000000000000000000000000000000000000000000000000602082015250565b60006137a1602483612b49565b91506137ac82613745565b604082019050919050565b600060208201905081810360008301526137d081613794565b9050919050565b7f4e487b7100000000000000000000000000000000000000000000000000000000600052601160045260246000fd5b600061381182612bf9565b915061381c83612bf9565b92508282101561382f5761382e6137d7565b5b828203905092915050565b600061384582612bf9565b915061385083612bf9565b9250827fffffffffffffffffffffffffffffffffffffffffffffffffffffffffffffffff03821115613885576138846137d7565b5b828201905092915050565b7f4e487b7100000000000000000000000000000000000000000000000000000000600052603260045260246000fd5b60006138ca82612bf9565b91507fffffffffffffffffffffffffffffffffffffffffffffffffffffffffffffffff82036138fc576138fb6137d7565b5b600182019050919050565b7f6f6e6c79206f776e6572206f6620746865206d61726b6574706c61636520636160008201527f6e206368616e6720746865206c697374696e6720707269636500000000000000602082015250565b6000613963603983612b49565b915061396e82613907565b604082019050919050565b6000602082019050818103600083015261399281613956565b9050919050565b7f506c65617365207375626d6974207468652061736b696e67207072696365732060008201527f696e206f7264657220746f20636f6d706c657465207468652070757263657365602082015250565b60006139f5604083612b49565b9150613a0082613999565b604082019050919050565b60006020820190508181036000830152613a24816139e8565b9050919050565b7f45524337323155524953746f726167653a2055524920717565727920666f722060008201527f6e6f6e6578697374656e7420746f6b656e000000000000000000000000000000602082015250565b6000613a87603183612b49565b9150613a9282613a2b565b604082019050919050565b60006020820190508181036000830152613ab681613a7a565b9050919050565b600081905092915050565b6000613ad382612b3e565b613add8185613abd565b9350613aed818560208601612b5a565b80840191505092915050565b6000613b058285613ac8565b9150613b118284613ac8565b91508190509392505050565b7f4552433732313a206f70657261746f7220717565727920666f72206e6f6e657860008201527f697374656e7420746f6b656e0000000000000000000000000000000000000000602082015250565b6000613b79602c83612b49565b9150613b8482613b1d565b604082019050919050565b60006020820190508181036000830152613ba881613b6c565b9050919050565b7f4552433732313a207472616e736665722066726f6d20696e636f72726563742060008201527f6f776e6572000000000000000000000000000000000000000000000000000000602082015250565b6000613c0b602583612b49565b9150613c1682613baf565b604082019050919050565b60006020820190508181036000830152613c3a81613bfe565b9050919050565b7f4552433732313a207472616e7366657220746f20746865207a65726f2061646460008201527f7265737300000000000000000000000000000000000000000000000000000000602082015250565b6000613c9d602483612b49565b9150613ca882613c41565b604082019050919050565b60006020820190508181036000830152613ccc81613c90565b9050919050565b7f4552433732313a206d696e7420746f20746865207a65726f2061646472657373600082015250565b6000613d09602083612b49565b9150613d1482613cd3565b602082019050919050565b60006020820190508181036000830152613d3881613cfc565b9050919050565b7f4552433732313a20746f6b656e20616c7265616479206d696e74656400000000600082015250565b6000613d75601c83612b49565b9150613d8082613d3f565b602082019050919050565b60006020820190508181036000830152613da481613d68565b9050919050565b7f45524337323155524953746f726167653a2055524920736574206f66206e6f6e60008201527f6578697374656e7420746f6b656e000000000000000000000000000000000000602082015250565b6000613e07602e83612b49565b9150613e1282613dab565b604082019050919050565b60006020820190508181036000830152613e3681613dfa565b9050919050565b7f5072696365206d757374206265206d6f7265207468616e203000000000000000600082015250565b6000613e73601983612b49565b9150613e7e82613e3d565b602082019050919050565b60006020820190508181036000830152613ea281613e66565b9050919050565b7f7072696365206d75737420626520657175616c20746f206c697374696e67207060008201527f7269636500000000000000000000000000000000000000000000000000000000602082015250565b6000613f05602483612b49565b9150613f1082613ea9565b604082019050919050565b60006020820190508181036000830152613f3481613ef8565b9050919050565b6000608082019050613f506000830187612c8e565b613f5d6020830186612c8e565b613f6a6040830185612d24565b613f776060830184612b14565b95945050505050565b7f436f756e7465723a2064656372656d656e74206f766572666c6f770000000000600082015250565b6000613fb6601b83612b49565b9150613fc182613f80565b602082019050919050565b60006020820190508181036000830152613fe581613fa9565b9050919050565b7f4552433732313a20617070726f766520746f2063616c6c657200000000000000600082015250565b6000614022601983612b49565b915061402d82613fec565b602082019050919050565b6000602082019050818103600083015261405181614015565b9050919050565b7f4552433732313a207472616e7366657220746f206e6f6e20455243373231526560008201527f63656976657220696d706c656d656e7465720000000000000000000000000000602082015250565b60006140b4603283612b49565b91506140bf82614058565b604082019050919050565b600060208201905081810360008301526140e3816140a7565b9050919050565b7f4552433732314d657461646174613a2055524920717565727920666f72206e6f60008201527f6e6578697374656e7420746f6b656e0000000000000000000000000000000000602082015250565b6000614146602f83612b49565b9150614151826140ea565b604082019050919050565b6000602082019050818103600083015261417581614139565b9050919050565b600081519050919050565b600082825260208201905092915050565b60006141a38261417c565b6141ad8185614187565b93506141bd818560208601612b5a565b6141c681612b8d565b840191505092915050565b60006080820190506141e66000830187612c8e565b6141f36020830186612c8e565b6142006040830185612d24565b81810360608301526142128184614198565b905095945050505050565b60008151905061422c81612aaf565b92915050565b60006020828403121561424857614247612a79565b5b60006142568482850161421d565b91505092915050565b7f4e487b7100000000000000000000000000000000000000000000000000000000600052601260045260246000fd5b600061429982612bf9565b91506142a483612bf9565b9250826142b4576142b361425f565b5b828204905092915050565b60006142ca82612bf9565b91506142d583612bf9565b9250826142e5576142e461425f565b5b82820690509291505056fea26469706673582212204292087cfee002837f9684772bc0d9f4f044101f5ee93572f817683f3ed3629f64736f6c634300080d0033",
  "immutableReferences": {},
  "source": "// SPDX-License-Identifier: MIT\r\npragma solidity >=0.8.0 <0.9.0;\r\n\r\n//INTERNAL IMPORT FOR NFT OPENZIPILINE\r\nimport \"@openzeppelin/contracts/token/ERC721/extensions/ERC721URIStorage.sol\";\r\nimport \"@openzeppelin/contracts/utils/Counters.sol\";\r\nimport \"@openzeppelin/contracts/token/ERC721/ERC721.sol\";\r\n\r\ncontract NFTMarketplace is ERC721URIStorage {\r\n    using Counters for Counters.Counter;\r\n\r\n    Counters.Counter private _tokenIds;\r\n    Counters.Counter private _itemsSold;\r\n\r\n    address payable owner;\r\n    uint256 listingPrice = 0.025 ether;\r\n\r\n    mapping(uint256 => MarketItem) private idMarketItem;\r\n\r\n    struct MarketItem {\r\n        uint256 tokenId;\r\n        address payable seller;\r\n        address payable owner;\r\n        uint price;\r\n        bool sold;\r\n    }\r\n\r\n    event MarketItemCreated(\r\n        uint256 indexed tokenId,\r\n        address seller,\r\n        address owner,\r\n        uint256 price,\r\n        bool sold\r\n    );\r\n\r\n    constructor() ERC721(\"NFT Token\", \"NT\"){\r\n        owner = payable(msg.sender);\r\n    }\r\n\r\n    modifier onlyOwner {\r\n        require(\r\n            msg.sender == owner, \r\n            \"only owner of the marketplace can chang the listing price\"\r\n        );\r\n        _;\r\n    }\r\n\r\n    function updateListingPrice(uint256 _listingPrice) public payable onlyOwner {\r\n        listingPrice = _listingPrice;\r\n    }\r\n\r\n    function getListingPrice() public view returns (uint256) {\r\n        return listingPrice;\r\n    }\r\n\r\n    // Leyt crearte NFT token function\r\n    function createToken(string memory tokenURI, uint256 price) public payable returns(uint256){\r\n        _tokenIds.increment();\r\n\r\n        uint256 newTokenId = _tokenIds.current();\r\n\r\n        _mint(msg.sender, newTokenId);\r\n        _setTokenURI(newTokenId, tokenURI);\r\n\r\n        createMarketItem(newTokenId, price);\r\n\r\n        return newTokenId;\r\n    }\r\n\r\n    // create market item\r\n    function createMarketItem(uint256 tokenId, uint256 price) private  {\r\n        require(price > 0, \"Price must be more than 0\");\r\n        require(msg.value == listingPrice, \"price must be equal to listing price\");\r\n\r\n        idMarketItem[tokenId] = MarketItem(\r\n            tokenId,\r\n            payable(msg.sender),\r\n            payable(address(this)),\r\n            price,\r\n            false\r\n        );\r\n\r\n        _transfer(msg.sender, address(this), tokenId);\r\n\r\n        emit MarketItemCreated(tokenId, msg.sender, address(this), price, false);\r\n    }\r\n\r\n    // function to resele token\r\n    function reSellToken(uint256 tokenId, uint256 price) public payable {\r\n        require(idMarketItem[tokenId].owner == msg.sender, \"Only owner can perform this operation\");\r\n        require(msg.value == listingPrice, \"Price must be equal to listing price\");\r\n\r\n        idMarketItem[tokenId].sold = false;\r\n        idMarketItem[tokenId].price = price;\r\n        idMarketItem[tokenId].seller = payable(msg.sender);\r\n        idMarketItem[tokenId].owner = payable(address(this));\r\n\r\n        _itemsSold.decrement();\r\n\r\n        _transfer(msg.sender, address(this), tokenId);\r\n    }\r\n\r\n    //function create market item sale\r\n    function createMarketSale(uint256 tokenId) public payable {\r\n        uint256 prices = idMarketItem[tokenId].price;\r\n\r\n        require(\r\n            msg.value == prices, \r\n            \"Please submit the asking prices in order to complete the purcese\"\r\n        );\r\n\r\n        idMarketItem[tokenId].owner = payable(msg.sender);\r\n        idMarketItem[tokenId].sold = true;\r\n        idMarketItem[tokenId].owner = payable(address(0));\r\n\r\n        _itemsSold.increment();\r\n\r\n        _transfer(address(this), msg.sender, tokenId);\r\n        payable(owner).transfer(listingPrice);\r\n        payable(idMarketItem[tokenId].seller).transfer(msg.value);\r\n    }\r\n\r\n    //getting unsole nft data\r\n    function fetchMarketItem() public view returns(MarketItem[] memory) {\r\n        uint256 itemCount = _tokenIds.current();\r\n        uint256 unSoldItemCount = _tokenIds.current() - _itemsSold.current();\r\n        uint256 currentIndex = 0;\r\n\r\n        MarketItem[] memory items = new MarketItem[](unSoldItemCount);\r\n        for (uint256 i = 0; i < itemCount; i++) {\r\n            if(idMarketItem[i + 1].owner == address(this)) {\r\n                uint256 currentId = i + 1;\r\n\r\n                MarketItem storage currentItem = idMarketItem[currentId];\r\n\r\n                items[currentIndex] = currentItem;\r\n                currentIndex += 1;\r\n            }\r\n        }\r\n\r\n        return items;\r\n    }\r\n\r\n    // purchase item\r\n    function fetchMyNFT() public view returns(MarketItem[] memory) {\r\n        uint256 totalCount = _tokenIds.current();\r\n        uint256 itemCount = 0;\r\n        uint256 currentIndex = 0;\r\n\r\n        for (uint256 i =0; i < totalCount; i++) {\r\n            if(idMarketItem[i + 1].owner == msg.sender) {\r\n                itemCount += 1;\r\n            }\r\n        }\r\n\r\n        MarketItem[] memory items = new MarketItem[](itemCount);\r\n        for (uint256 i = 0; i < totalCount; i++) {\r\n            if (idMarketItem[i + 1].owner == msg.sender) {\r\n                uint256 currentId = i + 1;\r\n                MarketItem storage currentItem = idMarketItem[currentId];\r\n                items[currentIndex] = currentItem;\r\n                currentIndex += 1;\r\n            }\r\n        }\r\n\r\n        return items;\r\n    }\r\n\r\n    // single user items\r\n    function fetchItemListed() public view returns(MarketItem[] memory) {\r\n        uint256 totalCount = _tokenIds.current();\r\n        uint256 itemCount = 0;\r\n        uint256 currentIndex = 0;\r\n\r\n        for (uint256 i = 0; i < totalCount; i++) {\r\n            if (idMarketItem[i + 1].seller == msg.sender) {\r\n                itemCount += 1;\r\n            }\r\n        }\r\n\r\n        MarketItem[] memory items = new MarketItem[](itemCount);\r\n        for (uint256 i = 0; i < totalCount; i++) {\r\n            if (idMarketItem[i + 1].seller == msg.sender) {\r\n                uint256 currentId = i + 1;\r\n                MarketItem storage currentItem = idMarketItem[currentId];\r\n                items[currentId] = currentItem;\r\n                currentIndex += 1;\r\n            }\r\n        }\r\n        return items;\r\n    }\r\n}",
  "sourcePath": "C:\\Users\\Admin\\Downloads\\nft-marketplace-main\\nft-marketplace-main\\contracts\\NftMarketplace.sol",
  "compiler": {
    "name": "solc",
    "version": "0.8.13+commit.abaa5c0e.Emscripten.clang"
  },
  "schemaVersion": "3.4.14",
  "updatedAt": "2023-06-13T02:32:06.441Z",
  "networkType": "ethereum",
  "devdoc": {
    "kind": "dev",
    "methods": {
      "approve(address,uint256)": {
        "details": "See {IERC721-approve}."
      },
      "balanceOf(address)": {
        "details": "See {IERC721-balanceOf}."
      },
      "getApproved(uint256)": {
        "details": "See {IERC721-getApproved}."
      },
      "isApprovedForAll(address,address)": {
        "details": "See {IERC721-isApprovedForAll}."
      },
      "name()": {
        "details": "See {IERC721Metadata-name}."
      },
      "ownerOf(uint256)": {
        "details": "See {IERC721-ownerOf}."
      },
      "safeTransferFrom(address,address,uint256)": {
        "details": "See {IERC721-safeTransferFrom}."
      },
      "safeTransferFrom(address,address,uint256,bytes)": {
        "details": "See {IERC721-safeTransferFrom}."
      },
      "setApprovalForAll(address,bool)": {
        "details": "See {IERC721-setApprovalForAll}."
      },
      "supportsInterface(bytes4)": {
        "details": "See {IERC165-supportsInterface}."
      },
      "symbol()": {
        "details": "See {IERC721Metadata-symbol}."
      },
      "tokenURI(uint256)": {
        "details": "See {IERC721Metadata-tokenURI}."
      },
      "transferFrom(address,address,uint256)": {
        "details": "See {IERC721-transferFrom}."
      }
    },
    "version": 1
  },
  "userdoc": {
    "kind": "user",
    "methods": {},
    "version": 1
  }
}